:0300000002157571
:0C157500787FE4F6D8FD75815F02135406
:10150300E4FDFCC3ED9FEC9E5015E4FBFA0BBB001E
:0F151300010AEB64714A70F50DBD00010C80E414
:0115220022A6
:0A1581007C037DE8120E8F021503B3
:0A158B007C007D3C120E8F021581DA
:0615B900380E01060C8053
:0A159500D2A7C280D28130A7FD2248
:101523001215958FA0C280C281D2827F017E0012E4
:051533001503C2822235
:101538001215958FA0D280C281D2827F017E0012BF
:051548001503C2822220
:10141C0078447C007D007BFF7A1579B97E007F06CD
:10142C00120E11E4F54AF54B7444254BF8E6FF1205
:10143C0015237F0A7E00121503054BE54B70020540
:0A144C004AC39406E54A940040DE0E
:011456002273
:1014E0008B448A458946AB44AA45A946120E37FF6C
:1014F000601012153874012546F546E43545F5456A
:0315000080E42262
:1014570057454C434F4D450054454D503A20252E96
:101467003266202A430054656D7065726174757227
:101477006520576172696E6720005761726E696EE9
:021487006700FC
:1013540012141C12159F7F807E251214897BFF7A3C
:101364001479571214E07FE87E031215037F0112EB
:041374001523C2B5C6
:1013780012154DAC07E41209898F438E428D418CBA
:1013880040E4FBFAF978401208008F438E428D4101
:101398008C407547FF75481475495F8F4D8E4C8D8D
:1013A8004B8C4A7B007A007922120F417B007A002D
:1013B80079221214E0E4FFFE7D107C42AB43AA427E
:1013C800A941A840120906603A4038D2B57B007A94
:1013D8000079221215627F0D1215A97F0A1215A92C
:1013E8007BFF7A14796D1215627F0D1215A97F0A99
:1013F8001215A97FC01215237BFF7A147981121464
:10140800E08002C2B57FE87E031215037F01121542
:0114180023B0
:0314190002137843
:0A159F00D2B4D2B2D2B37590FF228D
:10154D00C2B37F0A7E00121503D2B320B4FDC2B21E
:04155D00AF90D2B2C7
:011561002267
:10148900BE2505BF80027DFDBE1205BFC0027DFAE3
:10149900BE0905BF60027DF4E4B50709EEB44B054A
:0F14A9007587807DFD7589208D8D759850D28E49
:0114B8002211
:0815A9008F993099FDC29922CF
:0815B1003098FDC298AF9922A9
:10156200120E37FF600C1215A9740129F9E43AFA38
:0315720080EE22E6
:10080000EC4D6011E8497017ED33EC3304600DE4F2
:10081000FCFFFEFD22E933E8330470F80209F2120E
:1008200009BD58046009E4CC24815006285009020F
:1008300009FC2840030209F9C0E0EB4A7044B98082
:1008400006D0E0FB0209E8EF4E701CBD8008EBFF0C
:10085000EAFEE9FD80EBE98DF0A4FEE5F00208E98F
:10086000E9CDF9EAFEEBFFEF89F0A4FCE5F0CE89D3
:10087000F0A42EFFE435F0CD89F0A42DFEE435F090
:100880008067EF4E7005BD80D780C3EF8BF0A4ACBE
:10089000F0EE8BF0A42CFCE435F0F8EF8AF0A42CF9
:1008A000E5F038FCE433CB8DF0A42CFCE5F03BF80C
:1008B000EE8AF0A42CFCE5F038F8E433CF89F0A4FC
:1008C0002CFCE5F038CF3400CE89F0A42FFFE5F002
:1008D0003EFEE433C98DF0A42EFEE5F039CD8AF05A
:1008E000A42FFFE5F03EFEE43DFD33D0E0FB5007D2
:1008F0000BBB000F0209FCEC2CFCEF33FFEE33FEC8
:06090000ED33FD0209D4F5
:1009060074F8CC6480CCC86480C8F58204604FC398
:10091600EB9FF5F0EA9E42F0E99D42F0E89C45F037
:10092600603C501DE5825FFFE582D313CB5BCBF4C1
:100936002B5582FB50280ABA002409B900200880EA
:100946001DE5825BFBE582D313CF5FCFF4C3132F84
:100956005582FF50090EBE00050DBD00010CC3EB0C
:100966009FF5F0EA9E42F0E99D42F0E89C45F06072
:0909760007CC4820E701B3EC2294
:10097F0075F020800E75F010800575F0087D007EF3
:10098F00007F003392D530D503120EA1EC33401007
:10099F00EF33FFEE33FEED33FDEC33FCD5F0ED22FC
:0E09AF00E5F0247EA2D513CC92E7CDCEFF2238
:100EE500E55B2447F8E6055B22784430070278473E
:100EF500E475F001120EAF020E372000EB7F2ED203
:100F0500008018EF540F2490D43440D4FF30040BE4
:100F1500EF24BFB41A0050032461FFE55C6002159D
:100F25005C055FE55F7002055E30070D7844E4758A
:100F3500F001120EAFEF020E7D0214B97403D20751
:100F45008003E4C207F55B8B448A458946E4F55C7A
:100F5500F55EF55FE55C60077F20120F2080F57573
:100F65005DFFC201C200C202C203C205C206C208B9
:100F7500120EEEFF700D3007057F00120F31AF5FC7
:100F8500AE5E22B4255FC2D5C204120EEEFF24D098
:100F9500B40A00501A75F00A785C30D50508B6FF1A
:100FA5000106C6A426F620D5047002D20380D924F2
:100FB500CFB41A00EF5004C2E5D20402121ED201CA
:100FC50080C6D20080C0D20280BCD2D580BAD205FC
:100FD50080B47F20120F202002077401B55C004009
:100FE500F1120EE5FF120F20020F59D208D206802A
:100FF50095120EE5FB120EE5FA120EE5F94A4B7055
:101005000679157A137BFF20022EE55C602A7E00A7
:101015008E82758300120E5060060EEE655D70F0CF
:10102500C2D5EBC0E0EAC0E0E9C0E0EE12127ED026
:10103500E0F9D0E0FAD0E0FB120E37FF60AAEBC072
:10104500E0EAC0E0E9C0E0120F20D0E02401F9D0C9
:10105500E03400FAD0E0FBE55D0460DCD55DD980C5
:1010650087D20280A212126160F7E55D7001041259
:101075000A07A95D600DE55D600914F55D121308A9
:10108500EF60F3EA30E702F404C3995077EAF425F8
:101095005D0430E701E404F55D800D12126160C165
:1010A500EA055D255D120A07EA785AF630E701E49C
:1010B500255D04D55D042005011412127EE4C0E00F
:1010C500121308785AE6601320E70714F6120F0882
:1010D500802204F6D0E014C0E07F00120F08E55D21
:1010E5006007120EFF155D800B300503120EFFD051
:1010F500E0020F59D0E00480C512126160A0E55DE1
:1011050004120A07785AEAF6E55D20050260010433
:05111500240412127E0B
:10111A0074FF04C0E0121308120F08E55D200502EF
:10112A006003120EFFD0E0B55DE87F45120F12781A
:10113A005AE67F2B30E7047F2DF404C0E0120F201B
:10114A00D0E075F00A84C0F0120F09D0E0120F093E
:10115A00020F59791080027908C206C2088008D2A3
:10116A00D5790A8004790AC2D5E55D047002F55D75
:10117A00E4FAFDFEFF120EE5FC7B08200113120EB5
:10118A00E5FD7B1030000A120EE5FE120EE5FF7B2C
:10119A0020EC3382D592D55013C3E43000069FFF6A
:1011AA00E49EFEE42001039DFDE49CFCE4CBF8C22E
:1011BA0001EC700CCFCECDCCE824F8F870F3801790
:1011CA00C3EF33FFEE33FEED33FDEC33FCEB33FBC1
:1011DA00994002FB0FD8E9EB300105F8D0E0C4488A
:1011EA00B201C0E00AEC4D4E4F78207B0070C2EA93
:1011FA00B55D0040BCC0E0121280D0F0D0E0200102
:10120A0004C4C0E0C4B201C0F0120F09D0F0D5F096
:10121A00EB020F59120EBF0FF653115D580FC74C50
:10122A000FC34211614F1169441169490FDC43111F
:10123A006F5510A04610FE45106A471335500FCB64
:10124A002D0FCF2E0FF22B0FD3230FF020131E2AB0
:10125A000F8B4800000FEAE55DB4FF03755D0612C7
:10126A000EE5FC120EE5FD120EE5FE120EE5FF7804
:10127A0053020A36790AA2D5200314300509B91097
:10128A00020404B9080104A2D52006025001042070
:10129A0002689202B55C005034C0E07F2030031926
:1012AA007F30A20272067205500F1212D7C202C212
:1012BA0006C205C2087F30800F300503E9C0E0127C
:1012CA000F20300503D0E0F9D0E0B55CCC3005172B
:1012DA007F30B9100C120F207F583004077F7880B6
:1012EA0003B90803120F203002057F2D020F207F59
:1012FA00202008F87F2B2006F322920280CF7F005D
:10130A00B4070050052453F8E6FF22286E756C6C6A
:10131A002900D201120EE53001F8C201785C30D5FD
:10132A000108F6020F8B2D50434958120EE524038B
:10133A00B405004001E490133093120F11743A126D
:0A134A000F11D203755C0402115D5F
:1009BD00E9D2E7C933E833F892D5EDD2E7CD33EC80
:0709CD0033FC5002B2D522F9
:1009D400EC30E7100FBF000C0EBE00080DBD000484
:1009E4000BEB6014A2D5EB13FCED92E7FD2274FF30
:1009F400FCFDFEFF22E480F8A2D574FF13FC7D8089
:030A0400E480EF9C
:100A0700F920E72824F950037907E4F42402FB18B6
:100A1700DBFDE624FB5014E9600DE4F618E604F666
:0F0A2700B40A08E4F6D9F57401F60A22C2D52202
:100A3600ED33EC3392D5FA602AB4FF33EDC2E77B8F
:100A4600FF60067A0A795BE4227A0A796420D50483
:100A56007A0A795F224E614E002B494E46002D4997
:100A66004E4600E47A08F608DAFC7B00740722E8B2
:100A7600C0E0ECC0E0EDC0E0EEC0E0EFC0E0EA753B
:100A8600F010A4CAABF075F04DA42BFBE435F0FCD6
:100A9600EA2410FAEB34C5FBEC34D9FCEDC2E7FFCF
:100AA60075F056A4F42411C5F0F434C58FF0A42AC9
:100AB600E5F03BE43CF620E714120D01D0E0FFD050
:100AC600E0FED0E0FDD0E0FC120C348014F40412F9
:100AD6000D01D0E0FFD0E0FED0E0FDD0E0FC120832
:100AE60000D0E0F8E6FAEDD2E7CD33EC332482FB12
:100AF600E4C3CF33CFCE33CECD33CD33DBF37B0759
:100B060075F00A846004F6081B0AE5F0F6088FF013
:100B1600740AA4FFACF08EF0740AA42CFEACF0505C
:100B2600010C8DF0740AA42CFDE435F0F608DBDE2A
:030B36007407221F
:100B39000209F2E86480F8E933E83360110460F0EF
:100B4900ED33EC337009E8FCE9FDEAFEEBFF220422
:100B590060DED3EB9FEA9EE99DE8C2E78CF0C2F71D
:100B690095F0400CE8CCF8E9CDF9EACEFAEBCFFBE9
:100B79001209BD85D0F05804700320D5B3E804707C
:100B8900075002B2D50209FC92D5EC0460F7E4CC17
:100B9900C0E0C398F8603B94186008400DD0E0FBB2
:100BA9000209D4E4FBFAC9FC8028E830E406E4C968
:100BB900FBE4CAFCE830E305E4C9CACBFCE8540706
:100BC9006010F8C3E913F9EA13FAEB13FBEC13FC11
:100BD900D8F130F52FC3E49CFCEF9BFFEE9AFEEDB4
:100BE90099FDD0E0FBEF4E4D4C701222DB03020958
:100BF900F9EC2CFCEF33FFEE33FEED33FDED30E77E
:100C0900EB0209D4EF2BFFEE3AFEED39FDD0E0FB04
:100C190050130BBB00030209FCED13FDEE13FEEFAD
:080C290013FFEC13FC0209D4D7
:100C31000209FCEC5D046005E8590470030209F245
:100C41001209BD580460F6EC4860F2EC7004FDFE38
:100C5100FF22C860DB2481C85009C3986002500696
:100C61000209F99850CAF582E9294B4A7005AB820D
:100C71000209E875F0007C1A7880C3EF9BEE9AEDCB
:100C810099400DC3EF9BFFEE9AFEED99FDE842F00E
:100C9100DC23ACF0D0E0FFD0E0FED0E0FDAB822061
:100CA100E7101BEB60BAEC2CFCEF33FFEE33FEEDEB
:100CB10033FD0209D4E803F830E705C0F075F00010
:100CC100EF2FFFEE33FEED33FD40B830E7C280AACF
:100CD1003F8000004120000042C80000447A00002B
:100CE100461C400047C35000497424004B189680AD
:100CF1004CBEBC205A0E1BCA6753C21C749DC5AEA4
:100D0100FB60065407601C2323120D2FEB5438603F
:100D110009120D1B120D2A120800ECF8EDF9EEFA7A
:100D2100EFCB22EB120D2A80F1543803241C900CD6
:100D3100D1FE93FC0EEE93FD0EEE930ECE93FF22A9
:100D4100E709F608DFFA8046E709F208DFFA803E94
:100D510088828C83E709F0A3DFFA8032E309F60881
:100D6100DFFA8078E309F208DFFA807088828C83E9
:100D7100E309F0A3DFFA806489828A83E0A3F6089D
:100D8100DFFA805889828A83E0A3F208DFFA804C77
:100D910080D280FA80C680D4806980F2803380104E
:100DA10080A680EA809A80A880DA80E280CA8033B7
:100DB10089828A83ECFAE493A3C8C582C8CCC5832F
:100DC100CCF0A3C8C582C8CCC583CCDFE9DEE780FF
:100DD1000D89828A83E493A3F608DFF9ECFAA9F07E
:100DE100EDFB2289828A83ECFAE0A3C8C582C8CCD4
:100DF100C583CCF0A3C8C582C8CCC583CCDFEADEED
:100E0100E880DB89828A83E493A3F208DFF980CC4E
:100E110088F0EF60010E4E60C388F0ED2402B40447
:100E21000050B9F582EB2402B4040050AF232345EE
:060E31008223900D917375
:100E3700BB010689828A83E0225002E722BBFE02B9
:090E4700E32289828A83E49322EC
:100E5000BB010CE58229F582E5833AF583E0225057
:100E600006E92582F8E622BBFE06E92582F8E222A1
:0D0E7000E58229F582E5833AF583E49322BB
:100E7D00BB010689828A83F0225002F722BBFE0154
:020E8D00F3224E
:100E8F00EF8DF0A4A8F0CF8CF0A428CE8DF0A42E77
:020E9F00FE2231
:0E0EA100C3E49FFFE49EFEE49DFDE49CFC2262
:100EAF00FAE6FB0808E6F925F0F618E6CA3AF62244
:100EBF00D083D082F8E4937012740193700DA3A3C2
:100ECF0093F8740193F5828883E4737402936860D6
:060EDF00EFA3A3A380DFD6
:1014B900EFB40A07740D1214C4740A309811A8996C
:1014C900B8130CC2983098FDA899C298B811F63093
:0714D90099FDC299F599226B
:00000001FF
