:030000000209B33F
:0C09B300787FE4F6D8FD75810702098505
:100985007F141208BEBF01047D018002E4FD7F03D0
:0C0995001208007F327E0012096580E429
:10080000EFC394085022BD010FA8077401088002AD
:10081000C333D8FC42808010ED700DA80704088017
:1008200002C333D8FCF45280EFD39409500302087A
:10083000BDEF941240030208BD74F62FFFBD010EF8
:10084000F87401088002C333D8FC42908010ED7028
:100850000DA80704088002C333D8FCF45290EFD3EC
:100860009413402AEF941C502574EC2FFFBD010E09
:10087000F87401088002C333D8FC42A08010ED70E8
:100880000DA80704088002C333D8FCF452A0EFD3AC
:10089000941D4029EF9426502474E22FFFBD010DD2
:1008A000F87401088002C333D8FC42B022ED700D09
:0E08B000A80704088002C333D8FCF452B0221B
:10096500E4FDFCC3ED9FEC9E5015E4FBFA0BBB00C8
:0F097500010AEB64714A70F50DBD00010C80E4BE
:010984002250
:0A09BF007C037DE81209A10209651E
:0A09C9007C007D3C1209A10209BF69
:1008BE00AD07EDC39408501C7E007401A805088096
:1008CE0005C333CE33CED8F9FFAC80ECFBEF5B70B3
:1008DE00037F0122EDD394094025ED94125020742C
:1008EE00F62DFD7E007401A805088005C333CE33B6
:1008FE00CED8F9FFAC90ECFBEF5B70037F0122EDDD
:10090E00D394134025ED941C502074EC2DFD7E00E5
:10091E007401A805088005C333CE33CED8F9FFACD9
:10092E00A0ECFBEF5B70037F0122EDD3941D4024FE
:10093E00ED9426501F74E22DFDFF7E007401A80772
:10094E00088005C333CE33CED8F9FFADB0EF5D705E
:07095E00037F01227F00224C
:1009A100EF8DF0A4A8F0CF8CF0A428CE8DF0A42E6A
:0209B100FE2224
:00000001FF
