:030000000208EB08
:0C08EB00787FE4F6D8FD75811D0209320B
:0309F900020800F1
:0C09EC000A143F065B4F666D7C077F6FAE
:10080000E4F508F509AE08AF097C037DE812097725
:100810007C007D0A1209778C0A8D0BAE08AF097C2B
:10082000007D641209777C007D0A1209778C0C8D9B
:100830000DAE08AF097C007D0A1209777C007D0AA5
:100840001209778C0E8D0FAE08AF097C007D0A125D
:1008500009778C108D11E4F512F513D2A3C2A2C250
:10086000A1C2A07414250BF8E6F5907F017E00125A
:1008700009CCC2A3D2A2C2A1C2A07414250DF8E66D
:10088000F5907F017E001209CCC2A3C2A2D2A1C200
:10089000A07414250FF8E6F5907F017E001209CCB4
:1008A000C2A3C2A2C2A1D2A074142511F8E6F59089
:1008B0007F017E001209CCE5096464450870067565
:1008C00012037513E80513E51370020512D394643F
:1008D000E512940040850509E50970020508D394E6
:0A08E00064E50894005003020805C7
:0108EA0022EB
:1009CC00E4FDFCC3ED9FEC9E5015E4FBFA0BBB0061
:0F09DC00010AEB64714A70F50DBD00010C80E457
:0109EB0022E9
:1008F7000209F9E493A3F8E493A34003F68001F215
:1009070008DFF48029E493A3F85407240CC8C33301
:10091700C4540F4420C8834004F456800146F6DFD0
:10092700E4800B01020408102040809009ECE47E6B
:10093700019360BCA3FF543F30E509541FFEE493C5
:10094700A360010ECF54C025E060A840B8E493A38C
:10095700FAE493A3F8E493A3C8C582C8CAC583CAB7
:10096700F0A3C8C582C8CAC583CADFE9DEE780BE6F
:0109F80000FE
:10097700BC000BBE0029EF8DF084FFADF022E4CC64
:10098700F875F008EF2FFFEE33FEEC33FCEE9DEC2D
:10099700984005FCEE9DFE0FD5F0E9E4CEFD22ED73
:1009A700F8F5F0EE8420D21CFEADF075F008EF2FBD
:1009B700FFED33FD4007985006D5F0F222C398FDAE
:0509C7000FD5F0EA224B
:00000001FF
