:0300000002089162
:0C089100787FE4F6D8FD7581070208832B
:10080000BE2505BF80027DFDBE1205BFC0027DFA78
:10081000BE0905BF60027DF4BE0405BFB0027DE8DD
:10082000BE0205BF58027DD0BE0105BF2C027DA0CF
:10083000EF64964E70027D40EF646E4E7001FDE4F1
:10084000B50709EEB44B057587807DFD7589208D50
:060850008D759850D28E58
:01085600227F
:08089D008F993099FDC29922E8
:0808A5003098FDC298AF9922C2
:10087000120857FF600C12089D740129F9E43AFA36
:0308800080EE22E5
:0E0883007F007E4B1208007F5512089D80F901
:10085700BB010689828A83E0225002E722BBFE029F
:09086700E32289828A83E49322D2
:00000001FF
