:0300000002090FE3
:0C090F00787FE4F6D8FD75815A02095685
:100B1F005541525420495320526561647900526502
:040B2F006164790084
:100A2000204B0848796465726162616400000000CF
:100A3000000056696A6179617761646100000000B5
:100A4000004D756D6261690000000000000000004B
:100A5000476F61000000000000000000000000443B
:0E0A6000656C686900000000000000000000E6
:10099B007F807E25120AAC120A6F7BFF7A0B791FC0
:1009AB00120B337BFF7A0B792D120ADC7F0D120BA6
:1009BB00667FE87E03120AFF7F01120B46E4F553B4
:1009CB00E553C39405504CE55375F00FA42408F977
:1009DB00E4FAFB120B337F0D120B667F80120B4672
:1009EB00E55375F00FA42408F9E4FAFB120ADC05B1
:1009FB00537FC0120B46E55375F00FA42408F9E49E
:100A0B00FAFB120ADC7FE87E03120AFF7F01120B4E
:050A1B004680AD80FEE5
:100AFF00E4FDFCC3ED9FEC9E5015E4FBFA0BBB002D
:0F0B0F00010AEB64714A70F50DBD00010C80E422
:010B1E0022B4
:050B7600010C063880AF
:100B46008F90C286D2877F017E00120AFFC287225B
:100B56008F90D286D2877F017E00120AFFC287223B
:100A6F0078567C007D007BFF7A0B79767E007F05C0
:100A7F001208D0E4F554F55574562555F8E6FF12D3
:100A8F000B467F0A7E00120AFF0555E555700205D9
:0C0A9F0054C39405E5546480948040DC4E
:010AAB002228
:100ADC008B548A558956AB54AA55A9561208F6FF61
:100AEC006010120B5674012556F556E43555F55524
:030AFC0080E42271
:100AAC00BE2505BF80027DFDBE1205BFC0027DFACA
:100ABC00BE0905BF60027DF4E4B50709EEB44B0531
:0F0ACC007587807DFD7589208D8D759850D28E30
:010ADB0022F8
:080B66008F993099FDC299221C
:080B6E003098FDC298AF9922F6
:100B33001208F6FF600C120B66740129F9E43AFA05
:030B430080EE221F
:10091B0002099BE493A3F8E493A34003F68001F24E
:10092B0008DFF48029E493A3F85407240CC8C333DD
:10093B00C4540F4420C8834004F456800146F6DFAC
:10094B00E4800B0102040810204080900A20E47E12
:10095B00019360BCA3FF543F30E509541FFEE493A1
:10096B00A360010ECF54C025E060A840B8E493A368
:10097B00FAE493A3F8E493A3C8C582C8CAC583CA93
:10098B00F0A3C8C582C8CAC583CADFE9DEE780BE4B
:010A6E000087
:10080000E709F608DFFA8046E709F208DFFA803EDA
:1008100088828C83E709F0A3DFFA8032E309F608C7
:10082000DFFA8078E309F208DFFA807088828C832F
:10083000E309F0A3DFFA806489828A83E0A3F608E3
:10084000DFFA805889828A83E0A3F208DFFA804CBD
:1008500080D280FA80C680D4806980F28033801094
:1008600080A680EA809A80A880DA80E280CA8033FD
:1008700089828A83ECFAE493A3C8C582C8CCC58375
:10088000CCF0A3C8C582C8CCC583CCDFE9DEE78045
:100890000D89828A83E493A3F608DFF9ECFAA9F0C4
:1008A000EDFB2289828A83ECFAE0A3C8C582C8CC1A
:1008B000C583CCF0A3C8C582C8CCC583CCDFEADE33
:1008C000E880DB89828A83E493A3F208DFF980CC95
:1008D00088F0EF60010E4E60C388F0ED2402B4048E
:1008E0000050B9F582EB2402B4040050AF23234535
:0608F00082239008507302
:1008F600BB010689828A83E0225002E722BBFE0200
:09090600E32289828A83E4932232
:00000001FF
