:03000000020F6488
:0C0F6400787FE4F6D8FD758136020E2877
:100F0500E4FDFCC3ED9FEC9E5015E4FBFA0BBB0022
:0F0F1500010AEB64714A70F50DBD00010C80E418
:010F240022AA
:0A0F70007C037DE8120CA0020F05BF
:0A0F7A007C007D3C120CA0020F70F9
:060FA000380E01060C8072
:0A0F8400D2A7C280D28130A7FD225F
:100F2500120F848FA0C280C281D2827F017E0012FF
:050F35000F05C282223D
:100F3A00120F848FA0D280C281D2827F017E0012DA
:050F4A000F05C2822228
:100EA700782C7C007D007BFF7A0F79A07E007F067F
:100EB700120C2DE4F532F533742C2533F8E6FF12C6
:100EC7000F257F0A7E00120F050533E533700205F3
:0A0ED70032C39406E532940040DEB9
:010EE10022EE
:100EE2008B2C8A2D892EAB2CAA2DA92E120C53FFE6
:100EF2006010120F3A7401252EF52EE4352DF52DD2
:030F020080E42266
:080F980057454C434F4D450045
:100E2800120EA7120F8E7BFF7A0F7998120EE27FAF
:0B0E3800E87E03120F057F01120F255A
:100E4300120F4FAC07E4120AA88F2B8E2A8D298C20
:100E530028E4FBFA797F7843120A01E4FBFA79A0CC
:100E630078401208F88F2B8E2A8D298C287B007AE4
:100E7300007908120D4B7F80120F25E4F526F52724
:100E830074082527F8E6FF600D120F3A0527E527BA
:100E930070EE052680EA7FE87E03120F057F0112BC
:020EA3000F2519
:020EA500809C2F
:0A0F8E00D2B4D2B2D2B37590FF22A4
:100F4F00C2B37F0A7E00120F05D2B320B4FDC2B226
:040F5F00AF90D2B2CB
:010F6300226B
:0E0D4B008F2F8E2E8D2D8C2C8B308A3189327D
:100D5900120ADC8E338F34AC33AD34EC120AA3A8FB
:100D690004A905AA06AB07AF2FAE2EAD2DAC2C12E8
:100D79000803E4FBFA79C878421208F8120ADC8EF3
:100D8900358F36AE33AF347C007D64120CB27C00F3
:100D99007D0A120CB2ED2430AB30AA31A932120C03
:100DA9006CAE33AF347C007D0A120CB27C007D0A34
:100DB900120CB2ED2430AB30AA31A93290000112E5
:100DC9000C7EAE33AF347C007D0A120CB2ED2430B8
:100DD900AB30AA31A932900002120C7E9000037444
:100DE9002E120C7EAE35AF367C007D0A120CB2EFA6
:100DF9002430AB30AA31A932900004120C7EAE35F2
:100E0900AF367C007D0A120CB2ED2430AB30AA312A
:0F0E1900A932900005120C7E900006E4020C7EB8
:10080000020B48E86480F8E933E83360110460F0D3
:10081000ED33EC337009E8FCE9FDEAFEEBFF22045E
:1008200060DED3EB9FEA9EE99DE8C2E78CF0C2F759
:1008300095F0400CE8CCF8E9CDF9EACEFAEBCFFB25
:10084000120B1385D0F05804700320D5B3E8047060
:10085000075002B2D5020B5292D5EC0460F7E4CCFB
:10086000C0E0C398F8603B94186008400DD0E0FBEE
:10087000020B2AE4FBFAC9FC8028E830E406E4C94C
:10088000FBE4CAFCE830E305E4C9CACBFCE8540742
:100890006010F8C3E913F9EA13FAEB13FBEC13FC4D
:1008A000D8F130F52FC3E49CFCEF9BFFEE9AFEEDF0
:1008B00099FDD0E0FBEF4E4D4C701222DB03020B92
:1008C0004FEC2CFCEF33FFEE33FEED33FDED30E764
:1008D000EB020B2AEF2BFFEE3AFEED39FDD0E0FBE9
:1008E00050130BBB0003020B52ED13FDEE13FEEF92
:0808F00013FFEC13FC020B2ABC
:1008F800EC4D6011E8497017ED33EC3304600DE4FA
:10090800FCFFFEFD22E933E8330470F8020B4812BD
:100918000B1358046009E4CC2481500628500902BE
:100928000B52284003020B4FC0E0EB4A7044B980D9
:1009380006D0E0FB020B3EEF4E701CBD8008EBFFBB
:10094800EAFEE9FD80EBE98DF0A4FEE5F00209E19D
:10095800E9CDF9EAFEEBFFEF89F0A4FCE5F0CE89DA
:10096800F0A42EFFE435F0CD89F0A42DFEE435F097
:100978008067EF4E7005BD80D780C3EF8BF0A4ACC5
:10098800F0EE8BF0A42CFCE435F0F8EF8AF0A42C00
:10099800E5F038FCE433CB8DF0A42CFCE5F03BF813
:1009A800EE8AF0A42CFCE5F038F8E433CF89F0A403
:1009B8002CFCE5F038CF3400CE89F0A42FFFE5F009
:1009C8003EFEE433C98DF0A42EFEE5F039CD8AF061
:1009D800A42FFFE5F03EFEE43DFD33D0E0FB5007D9
:1009E8000BBB000F020B52EC2CFCEF33FFEE33FE77
:0609F800ED33FD020B2AA5
:1009FE00020B52EC5D046005E859047003020B48CB
:100A0E00120B13580460F6EC4860F2EC7004FDFE15
:100A1E00FF22C860DB2481C85009C39860025006CB
:100A2E00020B4F9850CAF582E9294B4A7005AB82EA
:100A3E00020B3E75F0007C1A7880C3EF9BEE9AEDA8
:100A4E0099400DC3EF9BFFEE9AFEED99FDE842F043
:100A5E00DC23ACF0D0E0FFD0E0FED0E0FDAB822096
:100A6E00E7101BEB60BAEC2CFCEF33FFEE33FEED20
:100A7E0033FD020B2AE803F830E705C0F075F000ED
:100A8E00EF2FFFEE33FEED33FD40B830E7C280AA04
:100A9E0075F020800E75F010800575F0087D007ED3
:100AAE00007F003392D530D503120CE8EC334010A2
:100ABE00EF33FFEE33FEED33FDEC33FCD5F0ED22DC
:0E0ACE00E5F0247EA2D513CC92E7CDCEFF2218
:100ADC00EDD2E7CD33EC3392D524814006E4FFFE12
:100AEC00FDFC22FCE4CFCECDCC24E0501174FF8071
:100AFC00EDC3CC13CCCD13CDCE13CECF13CF04700E
:070B0C00F030D5DE020CE819
:100B1300E9D2E7C933E833F892D5EDD2E7CD33EC28
:070B230033FC5002B2D522A1
:100B2A00EC30E7100FBF000C0EBE00080DBD00042C
:100B3A000BEB6014A2D5EB13FCED92E7FD2274FFD8
:100B4A00FCFDFEFF22E480F8A2D574FF13FC7D8031
:030B5A00E480EF45
:100B5D00E709F608DFFA8046E709F208DFFA803E7A
:100B6D0088828C83E709F0A3DFFA8032E309F60867
:100B7D00DFFA8078E309F208DFFA807088828C83CF
:100B8D00E309F0A3DFFA806489828A83E0A3F60883
:100B9D00DFFA805889828A83E0A3F208DFFA804C5D
:100BAD0080D280FA80C680D4806980F28033801034
:100BBD0080A680EA809A80A880DA80E280CA80339D
:100BCD0089828A83ECFAE493A3C8C582C8CCC58315
:100BDD00CCF0A3C8C582C8CCC583CCDFE9DEE780E5
:100BED000D89828A83E493A3F608DFF9ECFAA9F064
:100BFD00EDFB2289828A83ECFAE0A3C8C582C8CCBA
:100C0D00C583CCF0A3C8C582C8CCC583CCDFEADED2
:100C1D00E880DB89828A83E493A3F208DFF980CC34
:100C2D0088F0EF60010E4E60C388F0ED2402B4042D
:100C3D000050B9F582EB2402B4040050AF232345D4
:060C4D008223900BAD7341
:100C5300BB010689828A83E0225002E722BBFE029F
:090C6300E32289828A83E49322D2
:100C6C00BB010689828A83F0225002F722BBFE0167
:020C7C00F32261
:100C7E00F8BB010DE58229F582E5833AF583E8F0AC
:100C8E00225006E92582C8F622BBFE05E92582C858
:020C9E00F22240
:100CA000EF8DF0A4A8F0CF8CF0A428CE8DF0A42E68
:020CB000FE2222
:100CB200C2D5EC30E709B2D5E4C39DFDE49CFCEE5D
:100CC20030E715B2D5E4C39FFFE49EFE120CF6C3D3
:100CD200E49DFDE49CFC8003120CF630D507C3E4CE
:060CE2009FFFE49EFE22CC
:0E0CE800C3E49FFFE49EFEE49DFDE49CFC221D
:100CF600BC000BBE0029EF8DF084FFADF022E4CCE2
:100D0600F875F008EF2FFFEE33FEEC33FCEE9DECAA
:100D1600984005FCEE9DFE0FD5F0E9E4CEFD22EDF0
:100D2600F8F5F0EE8420D21CFEADF075F008EF2F3A
:100D3600FFED33FD4007985006D5F0F222C398FD2B
:050D46000FD5F0EA22C8
:00000001FF
