:03000000020C955A
:0C0C9500787FE4F6D8FD758139020CDC94
:100D2100454E544552205448452050415353574F46
:100D3100524400454E544552205448452050415399
:100D4100530050415353574F5244204D415443484F
:100D510045440057524F4E472050415353574F522D
:100D61004400415454454D5054535F52494D3A004B
:100D7100444556494345204953204C4F434B454434
:100D810000545259414741494E2041465420314D6A
:100D9100494E00414343455353204752414E544528
:020DA10044000C
:0A0E610002080003041944312A427C
:100DE0008B338A348935AF1505158F82758300E5FD
:100DF0003912090F851582758300E412090FAB368D
:100E0000AA37A938AF1605168F82758300742A1287
:0C0E1000090F851682758300E402090FAB
:100E970078197C007D007B007A007910120AAFEF89
:060EA70024FF9200A200EE
:010EAD002222
:100ACC007F80120EC37BFF7A0D7921120E1C120B44
:100ADC00ED8F0AE50A7003020BEA7F80120EC37BCE
:100AEC00FF7A0D7934120E1C753600753700753887
:100AFC000B850A397B007A007910120DE07FC01249
:100B0C000EC37B007A00790B120E1CE51564046091
:100B1C0003020BEA120E9740397F647E00120E41DD
:100B2C007FC0120EC37BFF7A0D7943120E1C7FC857
:100B3C007E00120E417F01120EC3E4F515F516F579
:100B4C001774102517F8E4F60517E517B404F27FAF
:100B5C000122E5091509700215087F01120EC37FE9
:100B6C0080120EC37BFF7A0D7954120E1C7FC012BB
:100B7C000EC37BFF7A0D7963120E1CE5092430FF3E
:100B8C00120ED5E509450870347FFAFE120E417F2E
:100B9C0080120EC37BFF7A0D7971120E1C7FC0126E
:100BAC000EC37BFF7A0D7982120E1C7FF47E01122C
:100BBC000E417508007509037F01120EC37FF47E88
:100BCC0001120E417F01120EC3E4F515F516F5174F
:100BDC0074102517F8E4F60517E517B404F27F0036
:010BEC0022E6
:100E7E00120DA3120ACCBF01FA7F80120EC37BFFA4
:090E8E007A0D7994120E1C80F01B
:100E4100E4FDFCC3ED9FEC9E5015E4FBFA0BBB00E7
:0F0E5100010ABA03F8BBE8F50DBD00010C80E4FF
:010E6000226F
:100E6B0010233132334134353642373839432A3047
:020E7B0023440E
:100BED0075900F53900FE590B40E0C7F0A7E001296
:100BFD000E41E4F5228036E590B40D0C7F0A7E009F
:100C0D00120E417522018025E590B40B0C7F0A7EF2
:100C1D0000120E417522028014E590B4070C7F0A74
:100C2D007E00120E4175220380037F00227590F025
:100C3D005390F0E590B4E00C7F0A7E00120E41E473
:100C4D00F5218036E590B4D00C7F0A7E00120E415E
:100C5D007521018025E590B4B00C7F0A7E00120E3F
:100C6D00417521028014E590B4700C7F0A7E00124C
:100C7D000E4175210380037F0022E52225E025E04A
:080C8D0024232521F8E6FF22D3
:050EE700010C0638803B
:100EAE00C2B2D2B330A70DD2B47F017E00120E4172
:050EBE00C2B480F02227
:100EC3008FA0C2B2C2B3D2B47F017E00120E41C260
:020ED300B42247
:100ED5008FA0D2B2C2B3D2B47F017E00120E41C23E
:020EE500B42235
:100DA30078357C007D007BFF7A0E79E77E007F0536
:100DB3001208D0E4F533F53474352534F8E6FF1220
:100DC3000EC37F0A7E00120E410534E5347002051E
:0C0DD30033C39405E5336480948040DC59
:010DDF0022F1
:100E1C008B338A348935AB33AA34A9351208F66082
:100E2C00130535E5357002053414F91208F6FF1276
:050E3C000ED580E2224A
:100CA100020E7EE493A3F8E493A34003F68001F2DD
:100CB10008DFF48029E493A3F85407240CC8C33354
:100CC100C4540F4420C8834004F456800146F6DF23
:100CD100E4800B0102040810204080900E61E47E44
:100CE100019360BCA3FF543F30E509541FFEE49318
:100CF100A360010ECF54C025E060A840B8E493A3DF
:100D0100FAE493A3F8E493A3C8C582C8CAC583CA09
:100D1100F0A3C8C582C8CAC583CADFE9DEE780BEC1
:010E7D000074
:10080000E709F608DFFA8046E709F208DFFA803EDA
:1008100088828C83E709F0A3DFFA8032E309F608C7
:10082000DFFA8078E309F208DFFA807088828C832F
:10083000E309F0A3DFFA806489828A83E0A3F608E3
:10084000DFFA805889828A83E0A3F208DFFA804CBD
:1008500080D280FA80C680D4806980F28033801094
:1008600080A680EA809A80A880DA80E280CA8033FD
:1008700089828A83ECFAE493A3C8C582C8CCC58375
:10088000CCF0A3C8C582C8CCC583CCDFE9DEE78045
:100890000D89828A83E493A3F608DFF9ECFAA9F0C4
:1008A000EDFB2289828A83ECFAE0A3C8C582C8CC1A
:1008B000C583CCF0A3C8C582C8CCC583CCDFEADE33
:1008C000E880DB89828A83E493A3F208DFF980CC95
:1008D00088F0EF60010E4E60C388F0ED2402B4048E
:1008E0000050B9F582EB2402B4040050AF23234535
:0608F00082239008507302
:1008F600BB010689828A83E0225002E722BBFE0200
:09090600E32289828A83E4932232
:10090F00F8BB010DE58229F582E5833AF583E8F01E
:10091F00225006E92582C8F622BBFE05E92582C8CA
:02092F00F222B2
:10093100E3F5F009E208B5F06D606B80F3E3F5F0E3
:1009410009E608B5F060605E80F387F009E608B556
:10095100F054605280F487F009E208B5F04860462F
:1009610080F488828C8387F009E0A3B5F038603683
:1009710080F488828C8387F009E493A3B5F0276023
:100981002580F388828C83E3F5F009E0A3B5F016A6
:10099100601480F388828C83E3F5F009E493A3B5B6
:1009A100F004600280F2020A5C808580E7808E801C
:1009B100D2803C8015806C807E809B80B5808B804E
:1009C100A1804F8070803A020A6889828A83ECFA9A
:1009D100E493F5F0A3C8C582C8CCC583CCE493A346
:1009E100C8C582C8CCC583CCB5F070606E80E18982
:1009F100828A83E493F5F0A3E208B5F05E605C803F
:100A0100F289828A83E0F5F0A3E608B5F04D604BE8
:100A110080F389828A83E0F5F0A3E208B5F03C60B7
:100A21003A80F389828A83E493F5F0A3E608B5F06E
:100A31002A602880F2805389828A83ECFAE493F554
:100A4100F0A3C8C582C8CCC583CCE0A3C8C582C801
:100A5100CCC583CCB5F004600280E27FFFB5F00223
:100A61000F2240027F012289828A83ECFAE0F5F0AD
:100A7100A3C8C582C8CCC583CCE0A3C8C582C8CCF5
:100A8100C583CCB5F0D560D380E389828A83ECFA43
:100A9100E0F5F0A3C8C582C8CCC583CCE493A3C854
:100AA100C582C8CCC583CCB5F0B160AF80E288F017
:100AB100ED2402B4040050A3F582EB2402B4040037
:0B0AC100509923234582239009AA735B
:00000001FF
