:03000000020800F3
:0C080000787FE4F6D8FD758120020847DF
:10088C00E4FDFCC3ED9FEC9E5015E4FBFA0BBB00A2
:0F089C00010AEB64714A70F50DBD00010C80E498
:0108AB00222A
:1008AC008F08E508700D7F907E0112088CE50870AA
:0408BC0002B29022D2
:0208D400C10061
:0808CC0020A102B200A20022EB
:0C08C000C290A291E433FF1208AC80F655
:10080C000208C0E493A3F8E493A34003F68001F23A
:10081C0008DFF48029E493A3F85407240CC8C333ED
:10082C00C4540F4420C8834004F456800146F6DFBC
:10083C00E4800B01020408102040809008D4E47E70
:10084C00019360BCA3FF543F30E509541FFEE493B1
:10085C00A360010ECF54C025E060A840B8E493A378
:10086C00FAE493A3F8E493A3C8C582C8CAC583CAA3
:10087C00F0A3C8C582C8CAC583CADFE9DEE780BE5B
:0108D6000021
:00000001FF
