:03000000020A44AD
:0C0A4400787FE4F6D8FD75812A0208F6E0
:1009E800E4FDFCC3ED9FEC9E5015E4FBFA0BBB0045
:0F09F800010ABA03F8BBE8F50DBD00010C80E45D
:010A070022CC
:050A5800010C063880CE
:080A5000C2B2D2B330A7FD22AF
:100A20008FA0C2B2C2B3D2B47F017E001209E8C265
:020A3000B422EE
:100A32008FA0D2B2C2B3D2B47F017E001209E8C243
:020A4200B422DC
:1009AB0078267C007D007BFF7A0A79587E007F05D4
:1009BB001208D0E4F524F52574262525F8E6FF1258
:1009CB000A207F0A7E001209E80525E5257002053D
:0C09DB0024C39405E5246480948040DC73
:0109E70022ED
:100A08000E1B111111111F000E1B11111F1F1F00AA
:080A18000E1F1F1F1F1F1F000E
:1008F600780C7C007D007BFF7A0A79087E007F08F1
:100906001208D078147C007D007BFF7A0A79107E6D
:10091600007F081208D0781C7C007D007BFF7A0AD5
:1009260079187E007F081208D01209ABE4F508F5A5
:1009360009E5092440FF120A20740C2509F8E6FF90
:10094600120A32E5092448FF120A2074142509F810
:10095600E6FF120A32E5092450FF120A20741C250C
:1009660009F8E6FF120A320509E50970020508C30F
:100976009408E5086480948040B720B51C7F197EF2
:10098600001209E830B512050BE50B7002050A6482
:1009960003450A7004F50AF50B7F82120A20AF0B95
:0509A600120A3280D5A9
:10080000E709F608DFFA8046E709F208DFFA803EDA
:1008100088828C83E709F0A3DFFA8032E309F608C7
:10082000DFFA8078E309F208DFFA807088828C832F
:10083000E309F0A3DFFA806489828A83E0A3F608E3
:10084000DFFA805889828A83E0A3F208DFFA804CBD
:1008500080D280FA80C680D4806980F28033801094
:1008600080A680EA809A80A880DA80E280CA8033FD
:1008700089828A83ECFAE493A3C8C582C8CCC58375
:10088000CCF0A3C8C582C8CCC583CCDFE9DEE78045
:100890000D89828A83E493A3F608DFF9ECFAA9F0C4
:1008A000EDFB2289828A83ECFAE0A3C8C582C8CC1A
:1008B000C583CCF0A3C8C582C8CCC583CCDFEADE33
:1008C000E880DB89828A83E493A3F208DFF980CC95
:1008D00088F0EF60010E4E60C388F0ED2402B4048E
:1008E0000050B9F582EB2402B4040050AF23234535
:0608F00082239008507302
:00000001FF
