:030000000208A84B
:0C08A800787FE4F6D8FD75810C020896FC
:0908B40057454C20434F4D45000F
:10082A00E4FDFCC3ED9FEC9E5015E4FBFA0BBB0004
:0F083A00010AEB647F4A70F50DBD00010C80E4EC
:01084900228C
:10088300758901758CFF758AC7D28C308DFDC28D39
:03089300C28C22F2
:10084A00C2A0120883E4FEA806EF088002C313D8E8
:10085A00FC1392A01208830EBE08ECD2A0020883F1
:100800008B088A09890AAB08AA09A90A12086AFF93
:10081000601712084A7401250AF50AE43509F5093A
:0A0820007F017E0012082A80DD220D
:100896007BFF7A0879B41208007F017E0012082ACD
:0208A60080FED2
:10086A00BB010689828A83E0225002E722BBFE028C
:09087A00E32289828A83E49322BF
:00000001FF
