:030000000208EE05
:0C08EE00787FE4F6D8FD75810C02085CF0
:10085C0075080175092C1208B07F4E1208007F41F3
:10086C001208007F451208007F431208007F4412D3
:10087C0008001208C7E50915097002150814450887
:04088C0060D480F1C3
:1008B000D2A0D2A17F017E00120890C2A07F017E4B
:0708C00000120890C2A12202
:1008C700D2A17F017E00120890C2A07F017E001294
:0508D7000890D2A022F0
:020800008F0A5D
:10080200750B00750C07AF0CA807E50A088002C338
:1008120013D8FC1392A07F017E00120890D2A17F10
:10082200017E00120890C2A17F017E00120890E5AD
:100832000C150C7002150BC3E50B6480948050C636
:1008420020A012D2A17F017E00120890C2A17F01D6
:0A0852007E000208901208C780FE25
:10089000E4FDFCC3ED9FEC9E5015E4FBFA0BBB009E
:0F08A000010AEB64714A70F50DBD00010C80E494
:0108AF002226
:0A08FA007C037DE81208DC02089080
:0A0904007C007D3C1208DC0208FABA
:1008DC00EF8DF0A4A8F0CF8CF0A428CE8DF0A42E30
:0208EC00FE22EA
:00000001FF
