:0300000002088172
:0C088100787FE4F6D8FD7581090208308C
:04089D0031323300C1
:1008300075080175092C7F807E251208007BFF7AE0
:1008400008799D12086EE50915097002150814450E
:050850000860EA80F1E0
:10080000BE2505BF80027DFDBE1205BFC0027DFA78
:10081000BE0905BF60027DF4E4B50709EEB44B05DF
:0F0820007587807DFD7589208D8D759850D28EDE
:01082F0022A6
:08088D008F993099FDC29922F8
:080895003098FDC298AF9922D2
:10086E00120855FF600C12088D740129F9E43AFA4A
:03087E0080EE22E7
:10085500BB010689828A83E0225002E722BBFE02A1
:09086500E32289828A83E49322D4
:00000001FF
