:0300000002087B78
:0C087B00787FE4F6D8FD75810702085C68
:0D086E00486170707920446977616C690001
:10085C007F807E251208007BFF7A08796E1208498A
:02086C0080FE0C
:10080000BE2505BF80027DFDBE1205BFC0027DFA78
:10081000BE0905BF60027DF4E4B50709EEB44B05DF
:0F0820007587807DFD7589208D8D759850D28EDE
:01082F0022A6
:080887008F993099FDC29922FE
:08088F003098FDC298AF9922D8
:10084900120830FF600C120887740129F9E43AFA9A
:0308590080EE220C
:10083000BB010689828A83E0225002E722BBFE02C6
:09084000E32289828A83E49322F9
:00000001FF
