:03000000020A41B0
:0C0A4100787FE4F6D8FD75810F02098C67
:0E0A33005541525420495320526561647900A8
:10098C007F807E2512095C1209217BFF7A0A79335C
:10099C001209B37FE87E031209D67F011209F61201
:0709AC000A73120A0B80F828
:060A7B00380E01060C809C
:0A0A4D00D2A7C2B2D2B330A7FD2237
:1009F600120A4D8FA0C2B2C2B3D2B47F017E0012DA
:050A060009D6C2B42274
:100A0B00120A4D8FA0D2B2C2B3D2B47F017E0012B4
:050A1B0009D6C2B4225F
:1009210078087C007D007BFF7A0A797B7E007F0658
:100931001208D0E4F50EF50F7408250FF8E6FF1242
:1009410009F67F0A7E001209D6050FE50F70020530
:0A0951000EC39406E50E940040DE8C
:01095B002279
:1009B3008B088A09890AAB08AA09A90A1208F6FF53
:1009C3006010120A0B7401250AF50AE43509F509CA
:0309D30080E4229B
:10095C00BE2505BF80027DFDBE1205BFC0027DFA1B
:10096C00BE0905BF60027DF4E4B50709EEB44B0582
:0F097C007587807DFD7589208D8D759850D28E81
:01098B002249
:080A6B008F993099FDC2992218
:080A73003098FDC298AF9922F2
:100A20001208F6FF600C120A6B740129F9E43AFA15
:030A300080EE2233
:1009D600E4FDFCC3ED9FEC9E5015E4FBFA0BBB0057
:0F09E600010AEB64714A70F50DBD00010C80E44D
:0109F50022DF
:0A0A57007C037DE812090F0209D6A6
:0A0A61007C007D3C12090F020A57C9
:10080000E709F608DFFA8046E709F208DFFA803EDA
:1008100088828C83E709F0A3DFFA8032E309F608C7
:10082000DFFA8078E309F208DFFA807088828C832F
:10083000E309F0A3DFFA806489828A83E0A3F608E3
:10084000DFFA805889828A83E0A3F208DFFA804CBD
:1008500080D280FA80C680D4806980F28033801094
:1008600080A680EA809A80A880DA80E280CA8033FD
:1008700089828A83ECFAE493A3C8C582C8CCC58375
:10088000CCF0A3C8C582C8CCC583CCDFE9DEE78045
:100890000D89828A83E493A3F608DFF9ECFAA9F0C4
:1008A000EDFB2289828A83ECFAE0A3C8C582C8CC1A
:1008B000C583CCF0A3C8C582C8CCC583CCDFEADE33
:1008C000E880DB89828A83E493A3F208DFF980CC95
:1008D00088F0EF60010E4E60C388F0ED2402B4048E
:1008E0000050B9F582EB2402B4040050AF23234535
:0608F00082239008507302
:1008F600BB010689828A83E0225002E722BBFE0200
:09090600E32289828A83E4932232
:10090F00EF8DF0A4A8F0CF8CF0A428CE8DF0A42EFC
:02091F00FE22B6
:00000001FF
