:03000000020A40B1
:0C0A4000787FE4F6D8FD75815702090F9D
:1009E400E4FDFCC3ED9FEC9E5015E4FBFA0BBB0049
:0F09F400010AEB64724A70F50DBD00010C80E43E
:010A030022D0
:050A5400010C063880D2
:080A4C00C2B2D2B330A7FD22B3
:100A1C008FA0C2B2C2B3D2B47F017E001209E4C26D
:020A2C00B422F2
:100A2E008FA0D2B2C2B3D2B47F017E001209E4C24B
:020A3E00B422E0
:1009A70078537C007D007BFF7A0A79547E007F05AF
:1009B7001208D0E4F551F55274532552F8E6FF12A8
:1009C7000A1C7F0A7E001209E40552E552700205EF
:0C09D70051C39405E5516480948040DC1D
:0109E30022F1
:100A04008B518A528953AB51AA52A9531208F6FF4B
:080A14006005120A2E80EF229A
:1009620076696A61796177616461206973206120C7
:10097200776F6E64657266756C20636974792E2078
:1009820062656361757365206F66206974732067A1
:10099200656F6C6F676963616C206C6F636174690A
:0509A2006F6E20200033
:10090F00780A7C007D007BFF7A0979627E007F4543
:10091F001208D0754F007550441209A7E4F508F579
:10092F0009C3E5099550E54F6480F8E508648098A0
:10093F0050EA7F80120A1C740A2509F9E4FAFB12A7
:10094F000A047F647E001209E40509E50970D205E7
:03095F000880CE3F
:10080000E709F608DFFA8046E709F208DFFA803EDA
:1008100088828C83E709F0A3DFFA8032E309F608C7
:10082000DFFA8078E309F208DFFA807088828C832F
:10083000E309F0A3DFFA806489828A83E0A3F608E3
:10084000DFFA805889828A83E0A3F208DFFA804CBD
:1008500080D280FA80C680D4806980F28033801094
:1008600080A680EA809A80A880DA80E280CA8033FD
:1008700089828A83ECFAE493A3C8C582C8CCC58375
:10088000CCF0A3C8C582C8CCC583CCDFE9DEE78045
:100890000D89828A83E493A3F608DFF9ECFAA9F0C4
:1008A000EDFB2289828A83ECFAE0A3C8C582C8CC1A
:1008B000C583CCF0A3C8C582C8CCC583CCDFEADE33
:1008C000E880DB89828A83E493A3F208DFF980CC95
:1008D00088F0EF60010E4E60C388F0ED2402B4048E
:1008E0000050B9F582EB2402B4040050AF23234535
:0608F00082239008507302
:1008F600BB010689828A83E0225002E722BBFE0200
:09090600E32289828A83E4932232
:00000001FF
