:030000000208C82B
:0C08C800787FE4F6D8FD75810A02080074
:100800001208F67FE87E031208961208FF7FE87E42
:10081000031208961208F97FE87E03120896120860
:0A082000FC7FE87E0312089680D6E4
:0308F600D2A0226B
:0308F900D2A12267
:0308FC00C2A02275
:0308FF00C2A12271
:03090200B2A0227E
:0608E800A2A0B392A122C0
:0408EE0075A0AA2225
:0408F20075A0552276
:10087300E4F508AF08A8077401088002C333D8FC65
:1008830042A07F647E001208960508E508C3940819
:0208930040E142
:010895002240
:10084F00E4F509AF09A8077401088002C333D8FC87
:10085F00F452A07F647E001208960509E509C3943F
:03086F000840E05E
:010872002263
:10082A00E4F50AE4F5A0AF0AA80704088002C33376
:10083A00D8FC42A07F647E00120896050AE50AC326
:04084A00940840DFEF
:01084E002287
:10089600E4FDFCC3ED9FEC9E5015E4FBFA0BBB0098
:0F08A600010AEB64714A70F50DBD00010C80E48E
:0108B5002220
:0A08D4007C037DE81208B6020896C6
:0A08DE007C007D3C1208B60208D42D
:1008B600EF8DF0A4A8F0CF8CF0A428CE8DF0A42E56
:0208C600FE2210
:00000001FF
