:030000000209D919
:0C09D900787FE4F6D8FD758143020A2007
:100B3A00E4FDFCC3ED9FEC9E5015E4FBFA0BBB00F1
:0F0B4A00010AEB64714A70F50DBD00010C80E4E7
:010B59002279
:100ACD00101D3132334134353642373839432A30EF
:020ADD002344B0
:1009310075800F53800FE580B40E0C7F647E00122A
:100941000B3AE4F51C8036E580B40D0C7F647E0023
:10095100120B3A751C018025E580B40B0C7F647E77
:1009610000120B3A751C028014E580B4070C7F64F9
:100971007E00120B3A751C0380037F00227580F004
:100981005380F0E580B4E00C7F647E00120B3AE402
:10099100F51B8036E580B4D00C7F647E00120B3AE3
:1009A100751B018025E580B4B00C7F647E00120BBD
:1009B1003A751B028014E580B4700C7F647E0012CE
:1009C1000B3A751B0380037F0022E51C25E025E01F
:0809D100241D251BF8E6FF229E
:050BAB00010C0638807A
:100B7200C2B2D2B330A70DD2B47F017E00120B3ABB
:050B8200C2B480F02266
:100B87008FA0C2B2C2B3D2B47F017E00120B3AC2A9
:020B9700B42286
:100B99008FA0D2B2C2B3D2B47F017E00120B3AC287
:020BA900B42274
:100A6500783F7C007D007BFF7A0B79AB7E007F05AC
:100A75001208D0E4F53DF53E743F253EF8E6FF1239
:100A85000B877F0A7E00120B3A053EE53E70020594
:0C0A95003DC39405E53D6480948040DC86
:010AA1002232
:100AF2008B408A418942AB40AA41A9421208F66062
:100B0200130542E5427002054114F91208F6FF127C
:050B12000B9980E222B6
:100AA2008B3D8A3E893FAF1A051A8F82758300ED0E
:100AB20012090F851A82758300E412090F7F8012D2
:0B0AC2000B87AB3DAA3EA93F020AF2E1
:100B1700120A651209317518008F19E51945186011
:100B2700F27B007A007908AD19120AA2AF19120BED
:030B37005A80E001
:100ADF00102D3F065B4F666D7D077F6F777C395E0C
:020AEF0079711B
:100B5A00EFC39430400AEFD39439500474FD8002F5
:080B6A0074F62FF8E6F5902265
:1009E500020B17E493A3F8E493A34003F68001F206
:1009F50008DFF48029E493A3F85407240CC8C33313
:100A0500C4540F4420C8834004F456800146F6DFE1
:100A1500E4800B0102040810204080900ACDE47E9A
:100A2500019360BCA3FF543F30E509541FFEE493D6
:100A3500A360010ECF54C025E060A840B8E493A39D
:100A4500FAE493A3F8E493A3C8C582C8CAC583CAC8
:100A5500F0A3C8C582C8CAC583CADFE9DEE780BE80
:010AF1000004
:10080000E709F608DFFA8046E709F208DFFA803EDA
:1008100088828C83E709F0A3DFFA8032E309F608C7
:10082000DFFA8078E309F208DFFA807088828C832F
:10083000E309F0A3DFFA806489828A83E0A3F608E3
:10084000DFFA805889828A83E0A3F208DFFA804CBD
:1008500080D280FA80C680D4806980F28033801094
:1008600080A680EA809A80A880DA80E280CA8033FD
:1008700089828A83ECFAE493A3C8C582C8CCC58375
:10088000CCF0A3C8C582C8CCC583CCDFE9DEE78045
:100890000D89828A83E493A3F608DFF9ECFAA9F0C4
:1008A000EDFB2289828A83ECFAE0A3C8C582C8CC1A
:1008B000C583CCF0A3C8C582C8CCC583CCDFEADE33
:1008C000E880DB89828A83E493A3F208DFF980CC95
:1008D00088F0EF60010E4E60C388F0ED2402B4048E
:1008E0000050B9F582EB2402B4040050AF23234535
:0608F00082239008507302
:1008F600BB010689828A83E0225002E722BBFE0200
:09090600E32289828A83E4932232
:10090F00F8BB010DE58229F582E5833AF583E8F01E
:10091F00225006E92582C8F622BBFE05E92582C8CA
:02092F00F222B2
:00000001FF
