:030000000209C32F
:0C09C300787FE4F6D8FD7581170208F675
:0709D7000004081F080400E2
:1008F600780A7C007D007BFF7A0979D77E007F0726
:100906001208D0120942E4F508F509E5092440FF6A
:1009160012099F740A2509F8E6FF1209B10509E5CF
:100926000970020508C39407E5086480948040DBDB
:0C0936007F8412099FE4FF1209B180F4D5
:10097F00E4FDFCC3ED9FEC9E5015E4FBFA0BBB00AE
:0F098F00010ABA03F8BBE8F50DBD00010C80E4C6
:01099E002236
:0509DE00010C06388049
:0809CF00C2B2D2B330A7FD2231
:10099F008FA0C2B2C2B3D2B47F017E0012097FC250
:0209AF00B42270
:1009B1008FA0D2B2C2B3D2B47F017E0012097FC22E
:0209C100B4225E
:1009420078137C007D007BFF7A0979DE7E007F05CB
:100952001208D0E4F511F51274132512F8E6FF120D
:10096200099F7F0A7E0012097F0512E512700205B7
:0C09720011C39405E5116480948040DC02
:01097E002256
:10080000E709F608DFFA8046E709F208DFFA803EDA
:1008100088828C83E709F0A3DFFA8032E309F608C7
:10082000DFFA8078E309F208DFFA807088828C832F
:10083000E309F0A3DFFA806489828A83E0A3F608E3
:10084000DFFA805889828A83E0A3F208DFFA804CBD
:1008500080D280FA80C680D4806980F28033801094
:1008600080A680EA809A80A880DA80E280CA8033FD
:1008700089828A83ECFAE493A3C8C582C8CCC58375
:10088000CCF0A3C8C582C8CCC583CCDFE9DEE78045
:100890000D89828A83E493A3F608DFF9ECFAA9F0C4
:1008A000EDFB2289828A83ECFAE0A3C8C582C8CC1A
:1008B000C583CCF0A3C8C582C8CCC583CCDFEADE33
:1008C000E880DB89828A83E493A3F208DFF980CC95
:1008D00088F0EF60010E4E60C388F0ED2402B4048E
:1008E0000050B9F582EB2402B4040050AF23234535
:0608F00082239008507302
:00000001FF
