:030000000208E013
:0C08E000787FE4F6D8FD75810A02088CD0
:10088C001208A8BF010812090412090D80F21208FF
:0C089C00BBBF01EC12090712090A80E43E
:1008A80020900D7FF47E0112086C2090037F0122B6
:0308B8007F00229C
:1008BB0020910D7FF47E0112086C2091037F0122A1
:0308CB007F002289
:03090400D2A0225C
:03090700D2A12258
:03090A00C2A02266
:03090D00C2A12262
:03091000B2A02270
:0608F600A2A0B392A122B2
:0408FC0075A0AA2217
:0409000075A0552267
:10084900E4F508AF08A8077401088002C333D8FC8F
:1008590042A07F647E0012086C0508E508C394086D
:0208690040E16C
:01086B00226A
:10082500E4F509AF09A8077401088002C333D8FCB1
:10083500F452A07F647E0012086C0509E509C39493
:030845000840E088
:01084800228D
:10080000E4F50AE4F5A0AF0AA80704088002C333A0
:10081000D8FC42A07F647E0012086C050AE50AC37A
:04082000940840DF19
:0108240022B1
:10086C00E4FDFCC3ED9FEC9E5015E4FBFA0BBB00C2
:0F087C00010AEB64714A70F50DBD00010C80E4B8
:01088B00224A
:0A08EC007C037DE81208CE02086CC0
:1008CE00EF8DF0A4A8F0CF8CF0A428CE8DF0A42E3E
:0208DE00FE22F8
:00000001FF
